:100000000C9463000C948B000C948B000C948B006C
:100010000C948B000C948B000C948B000C948B0034
:100020000C948B000C948B000C948B000C94650347
:100030000C948B000C948B000C948B000C948B0014
:100040000C9423040C948B000C94E6050C942D0660
:100050000C948B000C948B000C948B000C948B00F4
:100060000C948B000C948B000000000024002700EF
:100070002A0000000000250028002B0000000000DE
:1000800023002600290004040404040404040202DA
:100090000202020203030303030301020408102007
:1000A0004080010204081020010204081020000012
:1000B0000007000201000003040600000000000029
:1000C00000008D00930711241FBECFEFD8E0DEBFE4
:1000D000CDBF11E0A0E0B1E0E2E1F4E102C00590A3
:1000E0000D92A036B107D9F712E0A0E6B1E001C049
:1000F0001D92A334B107E1F710E0C6ECD0E004C0D4
:100100002297FE010E94030AC23CD107C9F70E9450
:10011000E3070C94070A0C94000080E691E00E942B
:10012000210208958091320161E00E943E05089508
:100130008091320160E00E943E0508951F93182FC0
:1001400061E00E943E0564E670E080E090E00E947D
:100150006B04812F60E00E943E0564E670E080E061
:1001600090E00E946B04812F61E00E943E0564E6EE
:1001700070E080E090E00E946B04812F60E00E94BC
:100180003E0564E670E080E090E00E946B04812F01
:1001900061E00E943E0564E670E080E090E00E942D
:1001A0006B04812F60E00E943E051F9108958091AD
:1001B000380160E00E943E05809136019091370140
:1001C0000E949E008091360161E00E943E05609190
:1001D0002A0170912B0180E691E00E94770268E885
:1001E00073E180E090E00E946B048091360160E052
:1001F0000E943E050895809130010E949205BC0145
:1002000084E292E04AE050E00E94F40880913001DC
:100210000E949205019749F0809130010E94920559
:10022000892B11F480E00895089581E008950E94DB
:10023000FB008130E1F368E873E180E090E00E9428
:100240006B040E94FB00882311F40E94D7000E94D7
:10025000FB00813061F308958091360160E00E94D7
:100260003E0580913801909139010E949E00809155
:10027000380161E00E943E0560912C0170912D01D2
:1002800080E691E00E9477020E941701089560E0E5
:1002900070E020E030E0F901ED59FE4FD901AA5B92
:1002A000BE4F90818C91981711F46F5F7F4F2F5F35
:1002B0003F4F2A30310579F740E050E020E030E050
:1002C000F901ED59FE4FD901A45CBE4F90818C918C
:1002D000981711F44F5F5F4F2F5F3F4F2A30310562
:1002E00079F76A30710541F484E292E060E071E0F0
:1002F0000E94160981E008954A30510511F080E00E
:10030000089584E292E06DE071E00E94160981E0B8
:100310000895CF93DF9384E292E00E94EE061816D0
:1003200019067CF584E292E00E941F070A9749F5BE
:10033000C0E0D0E084E292E00E94EE0618161906B2
:10034000CCF784E292E00E941F078A309105C9F041
:100350008D309105B1F0FE01ED59FE4F808321965D
:10036000CA30D1053CF32A9761F484E292E06CE153
:1003700071E00E94130984E292E063E671E00E945A
:100380001609DF91CF9108950E9498000E9489017B
:100390000E944701882379F00E949200E3E6F1E091
:1003A000119281E0ED36F807D9F784E292E00E94DD
:1003B00048070E942C010895609134017091350125
:1003C00080E691E00E945E0384E292E040E659E01C
:1003D00060E070E00E9468068091320161E00E9456
:1003E000FF048091380161E00E94FF048091360192
:1003F00061E00E94FF0480913A0161E00E94FF04E5
:1004000080912E0160E00E94FF048091300160E045
:100410000E94FF048091300161E00E943E058091BE
:100420003A0161E00E943E058091380160E00E943F
:100430003E058091360160E00E943E050E942C013D
:100440000895FC0180916D018C3090F480838F5F62
:1004500080936D01815090E0FC01EE0FFF1FE80FCB
:10046000F91FE259FE4F88EB9BE092838183089548
:100470008FEF80830895FC0120812C30B8F58181B5
:10048000992787FD909548E850E0481B590B440F89
:10049000551F440F551F6417750784F082819927F3
:1004A00087FD909548E552E0481B590B440F551FB6
:1004B000440F551F641775070CF4AB0142505040B0
:1004C000CA01AA2797FDA095BA2F880F991FAA1FC6
:1004D000BB1F4FB7F89430E0F901EE0FFF1FE20F9A
:1004E000F31FE259FE4F928381834FBF0895AF926D
:1004F000BF92CF92DF92EF92FF920F931F93CF9311
:10050000DF93EC019B0182E0603278070CF048C079
:1005100077FF03C020E030E005C0653B710514F0B3
:1005200024EB30E000D000D0B901882777FD80951A
:10053000982F2981332727FD3095E8E8AE2EB12C7E
:10054000A21AB30AAA0CBB1CAA0CBB1CCC24B7FC75
:10055000C094DC2CEA81FF27E7FDF09528E532E026
:100560002E1B3F0B220F331F220F331F442737FD53
:100570004095542FEDB7FEB72183328343835483D4
:1005800020E030E040E050E004EBE02EF12C012DC3
:10059000112D0E9429099B010F900F900F900F9031
:1005A000CE01B9010E943B02DF91CF911F910F91C3
:1005B000FF90EF90DF90CF90BF90AF900895CF92D3
:1005C000DF92EF92FF921F93CF93DF93EC01162FF0
:1005D0007A01690188818C3008F064C0862F61E05F
:1005E0000E94FF04888190E0FC01EE0FFF1FE80FDE
:1005F000F91FE259FE4F1F738081807C812B80831D
:1006000080E292E08E199F0964E070E00E949D09EB
:10061000698380E699E08C199D0964E070E00E948E
:100620009D096A83A8818A2F6CE00E949109682F36
:1006300070E0AB01440F551F460F571F440F551F65
:10064000440F551F20E030E0C901840F951FFC01C5
:10065000EE0FFF1FE80FF91FE259FE4F808186FD64
:1006600015C02F5F3F4F2C30310571F724C0109219
:10067000800082E0809381001092850010928400B7
:10068000B19A80916F00826080936F008A2F90E012
:10069000FC01EE0FFF1FE80FF91FE259FE4F8081AA
:1006A000806480838881DF91CF911F91FF90EF90CC
:1006B000DF90CF900895672BD1F2E8CF40E252E06F
:1006C00020E639E00E94DF0208951F920F920FB6D4
:1006D0000F9211242F933F934F935F936F937F93C8
:1006E0008F939F93AF93BF93EF93FF93809192016A
:1006F00087FF05C010928500109284002BC02091C6
:100700009201332727FD309580916D0190E02817E5
:10071000390704F580919201992787FD9095FC0196
:10072000EE0FFF1FE80FF91FE259FE4F808186FF91
:1007300011C080919201992787FD9095FC01EE0FE1
:10074000FF1FE80FF91FE259FE4F80818F7360E0B1
:100750000E943E05809192018F5F809392012091CB
:100760009201332727FD309580916D0190E0281785
:1007700039070CF04EC0809192018C300CF049C0CA
:10078000209184003091850080919201992787FD06
:100790009095FC01EE0FFF1FE80FF91FE259FE4F85
:1007A00081819281280F391F30938900209388001E
:1007B00080919201992787FD9095FC01EE0FFF1F14
:1007C000E80FF91FE259FE4F808186FF2BC0809110
:1007D0009201992787FD9095FC01EE0FFF1FE80F0E
:1007E000F91FE259FE4F80818F7361E00E943E0540
:1007F00019C080E49CE905C0809184009091850037
:10080000049690938900809388008FEF80939201E3
:1008100009C08091840090918500049680549C4981
:1008200040F3EACFFF91EF91BF91AF919F918F91EC
:100830007F916F915F914F913F912F910F900FBEDC
:100840000F901F9018951F920F920FB60F921124C0
:100850002F933F938F939F93AF93BF938091970173
:1008600090919801A0919901B0919A0130919B01CA
:100870000196A11DB11D232F2D5F2D3720F02D577F
:100880000196A11DB11D20939B0180939701909328
:100890009801A0939901B0939A018091930190914E
:1008A0009401A0919501B09196010196A11DB11DF1
:1008B0008093930190939401A0939501B093960136
:1008C000BF91AF919F918F913F912F910F900FBE4C
:1008D0000F901F9018959B01AC017FB7F894809101
:1008E000930190919401A0919501B091960166B504
:1008F000A89B05C06F3F19F00196A11DB11D7FBFD8
:10090000BA2FA92F982F8827860F911DA11DB11DE1
:1009100062E0880F991FAA1FBB1F6A95D1F7BC011F
:100920002DC0FFB7F8948091930190919401A0910C
:100930009501B0919601E6B5A89B05C0EF3F19F06F
:100940000196A11DB11DFFBFBA2FA92F982F88278F
:100950008E0F911DA11DB11DE2E0880F991FAA1FE6
:10096000BB1FEA95D1F7861B970B885E9340C8F2B0
:10097000215030404040504068517C4F2115310596
:100980004105510571F60895789484B5826084BD5F
:1009900084B5816084BD85B5826085BD85B5816083
:1009A00085BDEEE6F0E0808181608083E1E8F0E0E3
:1009B0001082808182608083808181608083E0E812
:1009C000F0E0808181608083E1EBF0E080818460F1
:1009D0008083E0EBF0E0808181608083EAE7F0E0F3
:1009E0008081846080838081826080838081816057
:1009F00080838081806880831092C1000895CF93A6
:100A0000DF93482F50E0CA0186569F4FFC01349176
:100A10004A575F4FFA018491882369F190E0880F6B
:100A2000991FFC01E859FF4FA591B491FC01EE58C4
:100A3000FF4FC591D491662351F42FB7F8948C9150
:100A4000932F909589238C93888189230BC06230E2
:100A500061F42FB7F8948C91932F909589238C9300
:100A60008881832B88832FBF06C09FB7F8948C9111
:100A7000832B8C939FBFDF91CF910895482F50E037
:100A8000CA0182559F4FFC012491CA0186569F4F8F
:100A9000FC0194914A575F4FFA013491332309F4D2
:100AA00040C0222351F1233071F0243028F421304A
:100AB000A1F0223011F514C02630B1F02730C1F07A
:100AC0002430D9F404C0809180008F7703C08091D6
:100AD00080008F7D8093800010C084B58F7702C026
:100AE00084B58F7D84BD09C08091B0008F7703C02D
:100AF0008091B0008F7D8093B000E32FF0E0EE0F87
:100B0000FF1FEE58FF4FA591B4912FB7F8946623BD
:100B100021F48C919095892302C08C91892B8C9320
:100B20002FBF0895682F70E0CB0182559F4FFC01C5
:100B30002491CB0186569F4FFC0144916A577F4F09
:100B4000FB019491992319F420E030E03CC022236A
:100B500051F1233071F0243028F42130A1F02230FB
:100B600011F514C02630B1F02730C1F02430D9F48B
:100B700004C0809180008F7703C0809180008F7DBA
:100B80008093800010C084B58F7702C084B58F7DBC
:100B900084BD09C08091B0008F7703C08091B00000
:100BA0008F7D8093B000892F90E0880F991F845823
:100BB0009F4FFC01A591B4918C9120E030E08423FB
:100BC00011F021E030E0C901089508951F920F92BD
:100BD0000FB60F9211242F933F934F938F939F93B0
:100BE000EF93FF934091C6002091DC013091DD012D
:100BF0002F5F3F4F2F7330708091DE019091DF01A6
:100C00002817390759F0E091DC01F091DD01E45635
:100C1000FE4F40833093DD012093DC01FF91EF9183
:100C20009F918F914F913F912F910F900FBE0F90F9
:100C30001F901895E0913002F0913102E05CFF4F77
:100C40008191919120813181821B930B8F739070E0
:100C5000892B11F00E94E50508951F920F920FB69F
:100C60000F9211242F933F938F939F93EF93FF93B2
:100C70002091200230912102809122029091230242
:100C80002817390731F48091C1008F7D8093C1000E
:100C900014C0E0912202F0912302E052FE4F208125
:100CA000809122029091230201968F73907090930D
:100CB0002302809322022093C600FF91EF919F911F
:100CC0008F913F912F910F900FBE0F901F9018950D
:100CD000AF92BF92DF92EF92FF920F931F93CF9349
:100CE000DF93EC017A018B01DD24403081EE58075F
:100CF00080E0680780E0780711F0DD24D39491E06C
:100D0000A92EB12CEC89FD89DD2069F0C5010E8C7E
:100D100002C0880F991F0A94E2F7808360E079E0AF
:100D20008DE390E005C0108260E874E88EE190E009
:100D3000A80197010E94B009215030404040504026
:100D4000569547953795279580E12030380720F054
:100D5000DD2011F0DD24D6CFE889F9893083EA89D6
:100D6000FB892083EE89FF89408121E030E0C901C1
:100D70000A8C02C0880F991F0A94E2F7482B40831F
:100D8000EE89FF894081C9010B8C02C0880F991F31
:100D90000A94E2F7482B4083EE89FF894081C9011C
:100DA0000C8C02C0880F991F0A94E2F7482B4083ED
:100DB000EE89FF8980810D8C02C0220F331F0A94B7
:100DC000E2F7209528232083DF91CF911F910F9187
:100DD000FF90EF90DF90BF90AF900895DC011C96DC
:100DE000ED91FC911D97E05CFF4F21913191808145
:100DF0009181281B390B2F733070C9010895DC01D4
:100E00001C96ED91FC911D97E05CFF4F2081318194
:100E1000E054F040DF01AE5BBF4F8D919C91119784
:100E20002817390719F42FEF3FEF07C08D919C91D8
:100E3000E80FF91F8081282F30E0C9010895DC01F7
:100E40001C96ED91FC911D97E05CFF4F2081318154
:100E5000E054F040DF01AE5BBF4F8D919C91119744
:100E60002817390719F42FEF3FEF10C08D919C918F
:100E70001197E80FF91F20818D919C911197019690
:100E80008F73907011969C938E9330E0C9010895F2
:100E9000FC0186859785DC01A05CBF4FFC01EE5B01
:100EA000FF4F2D913C91119780819181281739072F
:100EB000C1F70895CF93DF93EC01EE85FF85E05CE9
:100EC000FF4F20813181E054F0402F5F3F4F2F735F
:100ED0003070DF01AE5BBF4F8D919C911197281749
:100EE0003907D1F3E05CFF4F80819181E054F040FD
:100EF000E80FF91F6083EE85FF85E05CFF4F3183CB
:100F00002083EE89FF89208181E090E00D8C02C072
:100F1000880F991F0A94E2F7282B208381E090E044
:100F2000DF91CF910895109227021092260288EE49
:100F300093E0A0E0B0E08093280290932902A09370
:100F40002A02B0932B0284E591E0909325028093CE
:100F500024028CE991E0909331028093300280EE7C
:100F600091E0909333028093320285EC90E090936D
:100F700035028093340284EC90E0909337028093A2
:100F8000360280EC90E0909339028093380281EC35
:100F900090E090933B0280933A0286EC90E090932D
:100FA0003D0280933C0284E080933E0283E0809384
:100FB0003F0287E08093400285E08093410281E018
:100FC000809342020895CF93DF930E94C4040E944D
:100FD000DC01CAE1D6E00E94C4012097E1F30E943F
:100FE0001A06F9CFCF92DF92EF92FF920F931F93E1
:100FF000CF93DF937C016B018A01C0E0D0E00FC08A
:10100000D6016D916D01D701ED91FC910190F081B8
:10101000E02DC7010995C80FD91F015010400115D7
:10102000110571F7CE01DF91CF911F910F91FF90C4
:10103000EF90DF90CF900895EF92FF920F931F9360
:101040008C01DC01ED91FC910190F081E02D6DE0CF
:1010500009957C01D801ED91FC910190F081E02D82
:10106000C8016AE009959C012E0D3F1DC9011F9121
:101070000F91FF90EF900895CF93DF93DB010D90D8
:101080000020E9F71197A61BB70BEC01E881F98165
:101090000280F381E02DAD010995DF91CF91089594
:1010A0004F925F927F928F929F92AF92BF92CF9218
:1010B000DF92EF92FF920F931F93DF93CF93CDB701
:1010C000DEB7A1970FB6F894DEBF0FBECDBF2C01DF
:1010D000742ECB01223008F42AE019A231E2C32E8B
:1010E000D12CCC0EDD1E822E9924AA24BB24672D80
:1010F000752FA50194010E94B00979018A01C801E8
:10110000B701A50194010E947209472D461B08945E
:10111000C108D1084A3014F4405D01C0495CF601B1
:101120004083E114F1040105110521F07E2C5F2DAF
:10113000C801DDCFC201B6010E943C08A1960FB6DE
:10114000F894DEBF0FBECDBFCF91DF911F910F91FD
:10115000FF90EF90DF90CF90BF90AF909F908F90D7
:101160007F905F904F900895CF92DF92EF92FF9221
:101170000F931F93CF93DF93EC016A017B0121153D
:10118000310541F4E881F9810190F081E02D642F6F
:1011900009951FC02A303105D1F477FF17C0E881C7
:1011A000F9810190F081E02D6DE209958C014427D1
:1011B0005527BA014C195D096E097F09CE012AE055
:1011C0000E9450089801280F391F04C02AE00E948D
:1011D00050089C01C901DF91CF911F910F91FF90A1
:1011E000EF90DF90CF900895CF92DF92EF92FF9231
:1011F0000F931F936C017B019A010027F7FC009568
:10120000102FB801A7010E94B4088C01C6010E94EA
:101210001C08080F191FC8011F910F91FF90EF9034
:10122000DF90CF9008950E943C080895EF92FF92BE
:101230000F931F937C010E943C088C01C7010E9400
:101240001C08080F191FC8011F910F91FF90EF9004
:1012500008952F923F924F925F926F927F928F925A
:101260009F92AF92BF92CF92DF92EF92FF920F9335
:101270001F93DF93CF93CDB7DEB73B014C0119012C
:101280002A016D897E898F89988D6A197B098C095D
:101290009D09621A730A840A950AA40193010E94A7
:1012A0007209E218F30804091509A80197010E94C0
:1012B000D2092A0D3B1D4C1D5D1DB901CA01CF91FC
:1012C000DF911F910F91FF90EF90DF90CF90BF9033
:1012D000AF909F908F907F906F905F904F903F90D6
:1012E0002F900895629FD001739FF001829FE00DBF
:1012F000F11D649FE00DF11D929FF00D839FF00D95
:10130000749FF00D659FF00D9927729FB00DE11D40
:10131000F91F639FB00DE11DF91FBD01CF0111241D
:101320000895991B79E004C0991F961708F0961B41
:10133000881F7A95C9F78095089597FB092E07268F
:101340000AD077FD04D049D006D000201AF4709559
:1013500061957F4F0895F6F7909581959F4F089579
:10136000A1E21A2EAA1BBB1BFD010DC0AA1FBB1FA9
:10137000EE1FFF1FA217B307E407F50720F0A21B1B
:10138000B30BE40BF50B661F771F881F991F1A9488
:1013900069F760957095809590959B01AC01BD01B2
:1013A000CF01089597FB092E05260ED057FD04D0D6
:1013B000D7DF0AD0001C38F4509540953095219520
:1013C0003F4F4F4F5F4F0895F6F79095809570957A
:1013D00061957F4F8F4F9F4F0895AA1BBB1B51E113
:1013E00007C0AA1FBB1FA617B70710F0A61BB70B95
:1013F000881F991F5A95A9F780959095BC01CD013A
:101400000895EE0FFF1F0590F491E02D0994F894D4
:02141000FFCF0C
:101412005441472049443A2054726F79005441475D
:101422002049443A20416E64726577005441472056
:10143200636F64652069733A20002800820002000D
:101442000600040009000D000B0007003344303091
:1014520037334145303933443030314436314644F4
:10146200000000005A07F207EE061F07FF064807B2
:00000001FF
